{
  "_format": "hh-sol-artifact-1",
  "contractName": "Tenmile",
  "sourceName": "contracts/Tenmile.sol",
  "abi": [
    {
      "inputs": [],
      "stateMutability": "nonpayable",
      "type": "constructor"
    },
    {
      "anonymous": false,
      "inputs": [
        {
          "indexed": true,
          "internalType": "address",
          "name": "owner",
          "type": "address"
        },
        {
          "indexed": true,
          "internalType": "address",
          "name": "spender",
          "type": "address"
        },
        {
          "indexed": false,
          "internalType": "uint256",
          "name": "value",
          "type": "uint256"
        }
      ],
      "name": "Approval",
      "type": "event"
    },
    {
      "anonymous": false,
      "inputs": [
        {
          "indexed": true,
          "internalType": "address",
          "name": "from",
          "type": "address"
        },
        {
          "indexed": true,
          "internalType": "address",
          "name": "to",
          "type": "address"
        },
        {
          "indexed": false,
          "internalType": "uint256",
          "name": "value",
          "type": "uint256"
        }
      ],
      "name": "Transfer",
      "type": "event"
    },
    {
      "inputs": [
        {
          "internalType": "address",
          "name": "owner",
          "type": "address"
        },
        {
          "internalType": "address",
          "name": "spender",
          "type": "address"
        }
      ],
      "name": "allowance",
      "outputs": [
        {
          "internalType": "uint256",
          "name": "",
          "type": "uint256"
        }
      ],
      "stateMutability": "view",
      "type": "function"
    },
    {
      "inputs": [
        {
          "internalType": "address",
          "name": "spender",
          "type": "address"
        },
        {
          "internalType": "uint256",
          "name": "amount",
          "type": "uint256"
        }
      ],
      "name": "approve",
      "outputs": [
        {
          "internalType": "bool",
          "name": "",
          "type": "bool"
        }
      ],
      "stateMutability": "nonpayable",
      "type": "function"
    },
    {
      "inputs": [
        {
          "internalType": "address",
          "name": "account",
          "type": "address"
        }
      ],
      "name": "balanceOf",
      "outputs": [
        {
          "internalType": "uint256",
          "name": "",
          "type": "uint256"
        }
      ],
      "stateMutability": "view",
      "type": "function"
    },
    {
      "inputs": [],
      "name": "decimals",
      "outputs": [
        {
          "internalType": "uint8",
          "name": "",
          "type": "uint8"
        }
      ],
      "stateMutability": "view",
      "type": "function"
    },
    {
      "inputs": [
        {
          "internalType": "address",
          "name": "spender",
          "type": "address"
        },
        {
          "internalType": "uint256",
          "name": "subtractedValue",
          "type": "uint256"
        }
      ],
      "name": "decreaseAllowance",
      "outputs": [
        {
          "internalType": "bool",
          "name": "",
          "type": "bool"
        }
      ],
      "stateMutability": "nonpayable",
      "type": "function"
    },
    {
      "inputs": [
        {
          "internalType": "address",
          "name": "spender",
          "type": "address"
        },
        {
          "internalType": "uint256",
          "name": "addedValue",
          "type": "uint256"
        }
      ],
      "name": "increaseAllowance",
      "outputs": [
        {
          "internalType": "bool",
          "name": "",
          "type": "bool"
        }
      ],
      "stateMutability": "nonpayable",
      "type": "function"
    },
    {
      "inputs": [
        {
          "internalType": "address",
          "name": "account",
          "type": "address"
        },
        {
          "internalType": "uint256",
          "name": "amount",
          "type": "uint256"
        }
      ],
      "name": "increaseTotalSupply",
      "outputs": [],
      "stateMutability": "nonpayable",
      "type": "function"
    },
    {
      "inputs": [],
      "name": "name",
      "outputs": [
        {
          "internalType": "string",
          "name": "",
          "type": "string"
        }
      ],
      "stateMutability": "view",
      "type": "function"
    },
    {
      "inputs": [],
      "name": "symbol",
      "outputs": [
        {
          "internalType": "string",
          "name": "",
          "type": "string"
        }
      ],
      "stateMutability": "view",
      "type": "function"
    },
    {
      "inputs": [],
      "name": "totalSupply",
      "outputs": [
        {
          "internalType": "uint256",
          "name": "",
          "type": "uint256"
        }
      ],
      "stateMutability": "view",
      "type": "function"
    },
    {
      "inputs": [
        {
          "internalType": "address",
          "name": "to",
          "type": "address"
        },
        {
          "internalType": "uint256",
          "name": "amount",
          "type": "uint256"
        }
      ],
      "name": "transfer",
      "outputs": [
        {
          "internalType": "bool",
          "name": "",
          "type": "bool"
        }
      ],
      "stateMutability": "nonpayable",
      "type": "function"
    },
    {
      "inputs": [
        {
          "internalType": "address",
          "name": "from",
          "type": "address"
        },
        {
          "internalType": "address",
          "name": "to",
          "type": "address"
        },
        {
          "internalType": "uint256",
          "name": "amount",
          "type": "uint256"
        }
      ],
      "name": "transferFrom",
      "outputs": [
        {
          "internalType": "bool",
          "name": "",
          "type": "bool"
        }
      ],
      "stateMutability": "nonpayable",
      "type": "function"
    }
  ],
  "bytecode": "0x60806040523480156200001157600080fd5b50604080518082018252601481527f54656e204d696c6520455243323020546f6b656e000000000000000000000000602080830191825283518085019094526002845261746d60f01b9084015281519192916200007191600391620001be565b50805162000087906004906020840190620001be565b5050600580546001600160a01b03191633908117909155620000d09150620000ad601290565b620000bd9060ff16600a620002c8565b620000ca90600062000393565b620000d6565b62000408565b6001600160a01b038216620001315760405162461bcd60e51b815260206004820152601f60248201527f45524332303a206d696e7420746f20746865207a65726f206164647265737300604482015260640160405180910390fd5b806002600082825462000145919062000264565b90915550506001600160a01b038216600090815260208190526040812080548392906200017490849062000264565b90915550506040518181526001600160a01b038316906000907fddf252ad1be2c89b69c2b068fc378daa952ba7f163c4a11628f55a4df523b3ef9060200160405180910390a35050565b828054620001cc90620003b5565b90600052602060002090601f016020900481019282620001f057600085556200023b565b82601f106200020b57805160ff19168380011785556200023b565b828001600101855582156200023b579182015b828111156200023b5782518255916020019190600101906200021e565b50620002499291506200024d565b5090565b5b808211156200024957600081556001016200024e565b600082198211156200027a576200027a620003f2565b500190565b600181815b80851115620002c0578160001904821115620002a457620002a4620003f2565b80851615620002b257918102915b93841c939080029062000284565b509250929050565b6000620002d68383620002dd565b9392505050565b600082620002ee575060016200038d565b81620002fd575060006200038d565b8160018114620003165760028114620003215762000341565b60019150506200038d565b60ff841115620003355762000335620003f2565b50506001821b6200038d565b5060208310610133831016604e8410600b841016171562000366575081810a6200038d565b6200037283836200027f565b8060001904821115620003895762000389620003f2565b0290505b92915050565b6000816000190483118215151615620003b057620003b0620003f2565b500290565b600181811c90821680620003ca57607f821691505b60208210811415620003ec57634e487b7160e01b600052602260045260246000fd5b50919050565b634e487b7160e01b600052601160045260246000fd5b610b5e80620004186000396000f3fe608060405234801561001057600080fd5b50600436106100b45760003560e01c806370a082311161007157806370a082311461014157806395d89b411461016a578063a457c2d714610172578063a9059cbb14610185578063b2aa9f0f14610198578063dd62ed3e146101ad57600080fd5b806306fdde03146100b9578063095ea7b3146100d757806318160ddd146100fa57806323b872dd1461010c578063313ce5671461011f578063395093511461012e575b600080fd5b6100c16101e6565b6040516100ce9190610962565b60405180910390f35b6100ea6100e5366004610939565b610278565b60405190151581526020016100ce565b6002545b6040519081526020016100ce565b6100ea61011a3660046108fe565b610292565b604051601281526020016100ce565b6100ea61013c366004610939565b6102b6565b6100fe61014f3660046108ab565b6001600160a01b031660009081526020819052604090205490565b6100c16102f5565b6100ea610180366004610939565b610304565b6100ea610193366004610939565b61039b565b6101ab6101a6366004610939565b6103a9565b005b6100fe6101bb3660046108cc565b6001600160a01b03918216600090815260016020908152604080832093909416825291909152205490565b6060600380546101f590610ad7565b80601f016020809104026020016040519081016040528092919081815260200182805461022190610ad7565b801561026e5780601f106102435761010080835404028352916020019161026e565b820191906000526020600020905b81548152906001019060200180831161025157829003601f168201915b5050505050905090565b60003361028681858561042c565b60019150505b92915050565b6000336102a0858285610550565b6102ab8585856105e2565b506001949350505050565b3360008181526001602090815260408083206001600160a01b038716845290915281205490919061028690829086906102f09087906109b5565b61042c565b6060600480546101f590610ad7565b3360008181526001602090815260408083206001600160a01b03871684529091528120549091908381101561038e5760405162461bcd60e51b815260206004820152602560248201527f45524332303a2064656372656173656420616c6c6f77616e63652062656c6f77604482015264207a65726f60d81b60648201526084015b60405180910390fd5b6102ab828686840361042c565b6000336102868185856105e2565b60055482906001600160a01b038083169116146104085760405162461bcd60e51b815260206004820152601960248201527f4661696c65642c206e6f7420746f6b656e2069737375657221000000000000006044820152606401610385565b610427836104186012600a610a10565b6104229085610ab8565b6107b0565b505050565b6001600160a01b03831661048e5760405162461bcd60e51b8152602060048201526024808201527f45524332303a20617070726f76652066726f6d20746865207a65726f206164646044820152637265737360e01b6064820152608401610385565b6001600160a01b0382166104ef5760405162461bcd60e51b815260206004820152602260248201527f45524332303a20617070726f766520746f20746865207a65726f206164647265604482015261737360f01b6064820152608401610385565b6001600160a01b0383811660008181526001602090815260408083209487168084529482529182902085905590518481527f8c5be1e5ebec7d5bd14f71427d1e84f3dd0314c0f7b2291e5b200ac8c7c3b925910160405180910390a3505050565b6001600160a01b0383811660009081526001602090815260408083209386168352929052205460001981146105dc57818110156105cf5760405162461bcd60e51b815260206004820152601d60248201527f45524332303a20696e73756666696369656e7420616c6c6f77616e63650000006044820152606401610385565b6105dc848484840361042c565b50505050565b6001600160a01b0383166106465760405162461bcd60e51b815260206004820152602560248201527f45524332303a207472616e736665722066726f6d20746865207a65726f206164604482015264647265737360d81b6064820152608401610385565b6001600160a01b0382166106a85760405162461bcd60e51b815260206004820152602360248201527f45524332303a207472616e7366657220746f20746865207a65726f206164647260448201526265737360e81b6064820152608401610385565b6001600160a01b038316600090815260208190526040902054818110156107205760405162461bcd60e51b815260206004820152602660248201527f45524332303a207472616e7366657220616d6f756e7420657863656564732062604482015265616c616e636560d01b6064820152608401610385565b6001600160a01b038085166000908152602081905260408082208585039055918516815290812080548492906107579084906109b5565b92505081905550826001600160a01b0316846001600160a01b03167fddf252ad1be2c89b69c2b068fc378daa952ba7f163c4a11628f55a4df523b3ef846040516107a391815260200190565b60405180910390a36105dc565b6001600160a01b0382166108065760405162461bcd60e51b815260206004820152601f60248201527f45524332303a206d696e7420746f20746865207a65726f2061646472657373006044820152606401610385565b806002600082825461081891906109b5565b90915550506001600160a01b038216600090815260208190526040812080548392906108459084906109b5565b90915550506040518181526001600160a01b038316906000907fddf252ad1be2c89b69c2b068fc378daa952ba7f163c4a11628f55a4df523b3ef9060200160405180910390a35050565b80356001600160a01b03811681146108a657600080fd5b919050565b6000602082840312156108bc578081fd5b6108c58261088f565b9392505050565b600080604083850312156108de578081fd5b6108e78361088f565b91506108f56020840161088f565b90509250929050565b600080600060608486031215610912578081fd5b61091b8461088f565b92506109296020850161088f565b9150604084013590509250925092565b6000806040838503121561094b578182fd5b6109548361088f565b946020939093013593505050565b6000602080835283518082850152825b8181101561098e57858101830151858201604001528201610972565b8181111561099f5783604083870101525b50601f01601f1916929092016040019392505050565b600082198211156109c8576109c8610b12565b500190565b600181815b80851115610a085781600019048211156109ee576109ee610b12565b808516156109fb57918102915b93841c93908002906109d2565b509250929050565b60006108c58383600082610a265750600161028c565b81610a335750600061028c565b8160018114610a495760028114610a5357610a6f565b600191505061028c565b60ff841115610a6457610a64610b12565b50506001821b61028c565b5060208310610133831016604e8410600b8410161715610a92575081810a61028c565b610a9c83836109cd565b8060001904821115610ab057610ab0610b12565b029392505050565b6000816000190483118215151615610ad257610ad2610b12565b500290565b600181811c90821680610aeb57607f821691505b60208210811415610b0c57634e487b7160e01b600052602260045260246000fd5b50919050565b634e487b7160e01b600052601160045260246000fdfea264697066735822122064f04b1eed2345d8a13d5ebc21661bb67638c43e76c64bfa3623bfb49c4603a064736f6c63430008040033",
  "linkReferences": {},
  "deployedLinkReferences": {}
}