{
  "_format": "hh-sol-artifact-1",
  "contractName": "Vault",
  "sourceName": "contracts/Vault.sol",
  "abi": [
    {
      "inputs": [
        {
          "internalType": "address",
          "name": "_token",
          "type": "address"
        }
      ],
      "stateMutability": "nonpayable",
      "type": "constructor"
    },
    {
      "inputs": [
        {
          "internalType": "address",
          "name": "user",
          "type": "address"
        }
      ],
      "name": "balanceOf",
      "outputs": [
        {
          "internalType": "uint256",
          "name": "",
          "type": "uint256"
        }
      ],
      "stateMutability": "view",
      "type": "function"
    },
    {
      "inputs": [
        {
          "internalType": "address",
          "name": "user",
          "type": "address"
        },
        {
          "internalType": "uint256",
          "name": "amount",
          "type": "uint256"
        }
      ],
      "name": "deposit",
      "outputs": [],
      "stateMutability": "nonpayable",
      "type": "function"
    },
    {
      "inputs": [
        {
          "internalType": "address",
          "name": "",
          "type": "address"
        }
      ],
      "name": "deposited",
      "outputs": [
        {
          "internalType": "uint256",
          "name": "",
          "type": "uint256"
        }
      ],
      "stateMutability": "view",
      "type": "function"
    },
    {
      "inputs": [
        {
          "internalType": "address",
          "name": "user",
          "type": "address"
        },
        {
          "internalType": "uint256",
          "name": "amount",
          "type": "uint256"
        },
        {
          "internalType": "uint256",
          "name": "deadline",
          "type": "uint256"
        },
        {
          "internalType": "uint8",
          "name": "v",
          "type": "uint8"
        },
        {
          "internalType": "bytes32",
          "name": "r",
          "type": "bytes32"
        },
        {
          "internalType": "bytes32",
          "name": "s",
          "type": "bytes32"
        }
      ],
      "name": "permitDeposit",
      "outputs": [],
      "stateMutability": "nonpayable",
      "type": "function"
    },
    {
      "inputs": [
        {
          "internalType": "address",
          "name": "user",
          "type": "address"
        },
        {
          "internalType": "uint256",
          "name": "amount",
          "type": "uint256"
        },
        {
          "internalType": "uint256",
          "name": "deadline",
          "type": "uint256"
        },
        {
          "internalType": "uint8",
          "name": "v",
          "type": "uint8"
        },
        {
          "internalType": "bytes32",
          "name": "r",
          "type": "bytes32"
        },
        {
          "internalType": "bytes32",
          "name": "s",
          "type": "bytes32"
        }
      ],
      "name": "permitWithdraw",
      "outputs": [],
      "stateMutability": "nonpayable",
      "type": "function"
    },
    {
      "inputs": [],
      "name": "token",
      "outputs": [
        {
          "internalType": "address",
          "name": "",
          "type": "address"
        }
      ],
      "stateMutability": "view",
      "type": "function"
    },
    {
      "inputs": [
        {
          "internalType": "address",
          "name": "user",
          "type": "address"
        },
        {
          "internalType": "uint256",
          "name": "amount",
          "type": "uint256"
        }
      ],
      "name": "withdraw",
      "outputs": [],
      "stateMutability": "nonpayable",
      "type": "function"
    }
  ],
  "bytecode": "0x60a060405234801561001057600080fd5b5060405161077938038061077983398101604081905261002f91610044565b60601b6001600160601b031916608052610072565b600060208284031215610055578081fd5b81516001600160a01b038116811461006b578182fd5b9392505050565b60805160601c6106cd6100ac600039600081816101310152818161018d015281816102a00152818161033c015261043f01526106cd6000f3fe608060405234801561001057600080fd5b506004361061007d5760003560e01c80639a4994631161005b5780639a499463146100e6578063cb13cddb146100f9578063f3fef3a314610119578063fc0c546a1461012c57600080fd5b806347e7ef241461008257806370a08231146100975780638f7b1bca146100d3575b600080fd5b61009561009036600461056a565b61016b565b005b6100c06100a5366004610549565b6001600160a01b031660009081526020819052604090205490565b6040519081526020015b60405180910390f35b6100956100e1366004610593565b610289565b6100956100f4366004610593565b610325565b6100c0610107366004610549565b60006020819052908152604090205481565b61009561012736600461056a565b6103b5565b6101537f000000000000000000000000000000000000000000000000000000000000000081565b6040516001600160a01b0390911681526020016100ca565b6040516323b872dd60e01b8152336004820152306024820152604481018290527f00000000000000000000000000000000000000000000000000000000000000006001600160a01b0316906323b872dd90606401602060405180830381600087803b1580156101d957600080fd5b505af11580156101ed573d6000803e3d6000fd5b505050506040513d601f19601f8201168201806040525081019061021191906105f1565b6102585760405162461bcd60e51b81526020600482015260136024820152722a3930b739b332b910333937b69032b93937b960691b60448201526064015b60405180910390fd5b6001600160a01b03821660009081526020819052604081208054839290610280908490610652565b90915550505050565b60405163d505accf60e01b81526001600160a01b037f0000000000000000000000000000000000000000000000000000000000000000169063d505accf906102e190339030908a908a908a908a908a90600401610611565b600060405180830381600087803b1580156102fb57600080fd5b505af115801561030f573d6000803e3d6000fd5b5050505061031d868661016b565b505050505050565b60405163d505accf60e01b81526001600160a01b037f0000000000000000000000000000000000000000000000000000000000000000169063d505accf9061037d90339030908a908a908a908a908a90600401610611565b600060405180830381600087803b15801561039757600080fd5b505af11580156103ab573d6000803e3d6000fd5b5050505061031d86865b6001600160a01b0382166000908152602081905260408120546103d990839061066a565b1061041d5760405162461bcd60e51b8152602060048201526014602482015273496e73756666696369656e742042616c616e636560601b604482015260640161024f565b6040516323b872dd60e01b8152306004820152336024820152604481018290527f00000000000000000000000000000000000000000000000000000000000000006001600160a01b0316906323b872dd90606401602060405180830381600087803b15801561048b57600080fd5b505af115801561049f573d6000803e3d6000fd5b505050506040513d601f19601f820116820180604052508101906104c391906105f1565b6105055760405162461bcd60e51b81526020600482015260136024820152722a3930b739b332b910333937b69032b93937b960691b604482015260640161024f565b6001600160a01b0382166000908152602081905260408120805483929061028090849061066a565b80356001600160a01b038116811461054457600080fd5b919050565b60006020828403121561055a578081fd5b6105638261052d565b9392505050565b6000806040838503121561057c578081fd5b6105858361052d565b946020939093013593505050565b60008060008060008060c087890312156105ab578182fd5b6105b48761052d565b95506020870135945060408701359350606087013560ff811681146105d7578283fd5b9598949750929560808101359460a0909101359350915050565b600060208284031215610602578081fd5b81518015158114610563578182fd5b6001600160a01b0397881681529590961660208601526040850193909352606084019190915260ff16608083015260a082015260c081019190915260e00190565b6000821982111561066557610665610681565b500190565b60008282101561067c5761067c610681565b500390565b634e487b7160e01b600052601160045260246000fdfea264697066735822122092d3ea4adacd473691794676b4d2fc06e22be26982f0b1b59ce83b0e3f82617764736f6c63430008040033",
  "linkReferences": {},
  "deployedLinkReferences": {}
}